:10000000000004208D160000FD160000FF16000001
:100010000117000003170000051700000000000092
:1000200000000000000000000000000007170000B2
:1000300009170000000000000B1700000D1700005A
:100040000F1700000F1700000F1700000F17000018
:100050000F1700000F1700000F1700000F17000008
:100060000F1700002D1800000F1700000F170000D9
:100070000F1700000F1700000F1700000F170000E8
:100080000F1700000F1700000F1700000F170000D8
:100090000F1700000F1700000F1700000F170000C8
:1000A0000F1700000F1700000F1700000F170000B8
:1000B0000F1700000F1700000000000000000000F4
:1000C0000F1700000F1700000F1700000F17000098
:1000D0000F1700000F1700000F1700000F17000088
:1000E0000F1700000F1700000F170000000000009E
:1000F000000000000F170000000000000F170000B4
:1001000000000000000000000000000000000000EF
:1001100000000000000000000000000000000000DF
:1001200000000000000000000000000000000000CF
:1001300000000000000000000000000000000000BF
:1001400000000000000000000000000000000000AF
:10015000000000000000000000000000000000009F
:10016000000000000000000000000000000000008F
:10017000000000000000000000000000000000007F
:10018000000000000000000000000000000000006F
:10019000000000000000000000000000000000005F
:1001A000000000000000000000000000000000004F
:1001B000000000000000000000000000000000003F
:1001C000000000000000000000000000000000002F
:1001D000000000000000000000000000000000001F
:1001E000000000000000000000000000000000000F
:1001F00000000000000000000000000000000000FF
:10020000000000000000F03F00000000000024405B
:1002100000000000000059400000000000408F4036
:10022000000000000088C34000000000006AF840A1
:100230000000000080842E4100000000D0126341C5
:100240000000000084D797410000000065CDCD413B
:1002500061636358203D2025642020206163635939
:10026000203D2025642020206163635A203D202505
:10027000640A000058206178697320697320555022
:10028000210A000058206178697320697320444F67
:10029000574E210A000000005920617869732069D7
:1002A00073205550210A0000592061786973206934
:1002B0007320444F574E210A000000005A206178F5
:1002C0006973206973205550210A00005A20617813
:0D02D000697320697320444F574E210A00C6
:0802E000900000000100000085
:1002E8000348044B834202D0034B03B118477047BD
:1002F8000000002000000020000000000548064B18
:100308001B1AD90F01EBA301491002D0034B03B10B
:10031800184770470000002000000020000000007F
:1003280010B5064C237843B9FFF7DAFF044B13B135
:100338000448AFF300800123237010BD00000020A3
:1003480000000000A026000008B5044B1BB10449BA
:100358000448AFF30080BDE80840CFE70000000084
:1003680004000020A0260000A3F5803A704700BFD3
:10037800154B002B08BF114B9D46FFF7F5FF0021D9
:100388008B460F461148124A121A02F03BF80C4BE2
:10039800002B00D098470B4B002B00D0984700202B
:1003A800002104000D000B4802F0B4F802F07CF8BC
:1003B8002000290001F0A8F902F09EF800000800CA
:1003C80000000000000000000000042000000020E1
:1003D800FC020020292500004FF0805310B4D3F808
:1003E8003021082A20D04A4AD2F8883043F47003D2
:1003F800C2F88830BFF34F8FBFF36F8F4FF0805331
:10040800D3F83021082A02D05DF8044B7047D3F89E
:100418003431042BF8D94FF010224FF08043D2F832
:100428000822C3F85825EFE74FF080410020C1F8B3
:100438000C01384AC1F81001C1F83805D3F8040492
:10044800C2F82005D3F80804C2F82405D3F80C0430
:10045800C2F82805D3F81004C2F82C05D3F8140400
:10046800C2F83005D3F81804C2F83405D3F81C04D0
:10047800C2F84005D3F82004C2F84405D3F8240490
:10048800C2F84805D3F82804C2F84C05D3F82C0460
:10049800C2F85005D3F83004C2F85405D3F8340430
:1004A800C2F86005D3F83804C2F86405D3F83C04F0
:1004B800C2F86805D3F84004C2F86C05D3F83401D3
:1004C800D3F84444C2F8704550B14FF08043D3F894
:1004D8000024D20744BF6FF00102C3F8002482E76A
:1004E8000D480E4CC0F88C4602F54052FB20C2F86D
:1004F8001805D1F8E42ED3F858420948134664F396
:1005080003034FF40072C1F8E43EC0F84026DCE76C
:1005180000ED00E000C000400050004048810300AA
:1005280000900240704700BF2DE9F04F85B00746A4
:100538001498DDF838B00F9C9DF84060994610F08B
:1005480002038846DDE9125A114601932AD1BAF10D
:10055800000F40F09480AC4224D2202C00F001031C
:1005680000F07481621E5A444FF0300E02E0202CD5
:1005780000F0D3800134A54202F801EFF7D88BB11F
:1005880054450FD2202C00F0C081621E5A444FF00F
:10059800300C02E0202C00F010810134544502F8A0
:1005A80001CFF7D1C2064ED400F00302202C5BD154
:1005B800002A40F0AE80BAF1200F88BF202040F218
:1005C800A8800D46461A02900C462A464B4601352D
:1005D80041462020B84773195345F6D302980AF1CB
:1005E800FF36421C361A524588BF0026621C214637
:1005F8001644A8B1441E0BEB04053444CDE90206A9
:100608005C440E46A5EB000B621B15F801094B462E
:100618004146B847AB45F7D102983146039E064498
:10062800019B63B1741A544509D232464B46414680
:1006380020200134B847544506F10106F5D3304669
:1006480005B0BDE8F08F430556D4002C50D1119B5E
:10065800102B00F0E680022B00F0F18030228BF89E
:100668000020012400F00302002E6BD02D200BF88F
:100678000400601C0AB95045A3D30E46BBE710F02E
:10068800010369D0002E40F0818010F00C0F7DD15D
:10069800AC42BFF475AF202C7FF464AFBAF1200FE1
:1006A80040F20481C20640F1B480430500F119818B
:1006B800202D21D11F25119B102B00F0EC80022B3F
:1006C80000F0030208D14FF0620C0BF805C0202C93
:1006D8003FF46EAF254601344FF0300C0BF805C0DF
:1006E80064E7C30640F1E48042054FF0200403D4D8
:1006F800A5424ED054454CD0119B00F00302102B5C
:1007080015465FD0022BE2D1202C7FD1002D3FF47B
:1007180052AF0E461F2420206DE7002B00F0D88032
:10072800BAF1200FDDD9C20673D5440500F1D9808E
:10073800202D00F0E680BAF1200F40F08E8054465C
:100748001F25B8E7460746D52B200BF80400601C88
:10075800002A90D00E464EE7AC42BFF423AF202CBF
:100768007FF400AFC3067FF526AF44053FF523AFFE
:10077800202D00F0C680BAF1200FE0D0119B102B7D
:100788003FF419AF119B022B19D114E70AF1FF3A74
:100798007EE7651E8FD1119B102B6DD0022B7FF445
:1007A8005DAF62228BF8002030228BF801201C46B6
:1007B80000F00302002EC5D058E7C40694D400F018
:1007C8000302F5E683060ED4202C9FD078250BF87B
:1007D800045001347BE705070FD4A2BB544580F0D1
:1007E8008B802046EDE6202C90D00BEB04054FF0D3
:1007F800580C013485F800C069E720200BF8040084
:10080800601C002A3FF437AF0E46F4E62546013453
:1008180059E710F0030F20463FF4D3AE0E461F24CD
:10082800E9E684060DD558228BF8002030228BF893
:100838000120022400F00302002E83D016E7622272
:10084800F2E77822F0E720460E46D2E6002B60D089
:10085800C2062DD543057FF52BAF119B00F003058C
:10086800102B2A463FF452AF119B022B7FF4A0AE07
:10087800002D7FF44EAF9EE6820622D558228BF8D3
:10088800002030228BF80120022400F00302002E01
:100898003FF458AFEAE68506A4F102020AD47825A7
:1008A8000BF80250013C00F0030213E7C20612D411
:1008B8002046B3E758250BF80250013C00F003022C
:1008C80008E778228BF8002030228BF80120DBE73C
:1008D800C4067FF574AF4205BFD4202D11D0202463
:1008E80008E7119B102B00F003053FF40FAF022B14
:1008F8003FF40CAF2A465BE62CB120460E46013C7D
:1009080079E62C46D6E60E4699E6C3063FF50DAFC6
:1009180055E7C3063FF529AF20467FE700B9704782
:1009280000F09ABE000000002DE9F04F9DB09A46F5
:100938000B1E0893269B0A9318BF8346974B9AF879
:100948000000904608BF9B46002800F040834FF007
:10095800000909920AE04A46099B089909F1010928
:10096800D8479AF80000002800F08E8025280AF160
:10097800010AF0D10024534613F8010BA0F120021C
:10098800102A0AD8DFE802F04009093C09090909D8
:1009980009090938093409093000A0F13002092A87
:1009A80040F2B5802A2800F0D78000220B922E282A
:1009B80000F0C2800026A0F16802122A2DD8DFE8D4
:1009C80012F037012C0031012C0025012C002C00DD
:1009D8002C002C002C002C002C0027002C002C00B4
:1009E8002C002C002C00270044F001049A46C2E792
:1009F80044F002049A46BEE744F004049A46BAE773
:100A080044F010049A46B6E744F008049A46B2E760
:100A18009AF8010044F48074013366289A4643D852
:100A2800452826D9A0F14603202B22D8DFE813F069
:100A380009012100210021002100210021002100BD
:100A48002100210021002100210021002100210096
:100A58002100210043022100210021002100210062
:100A680021002100210021004302D8014302210076
:100A780009014A46099B0899D8479AF8000009F1E4
:100A8800010900287FF472AFDDF824804C46C84580
:100A980001D808F1FF39089943464A460020D8474B
:100AA80020461DB0BDE8F08FA0F16902D2B20F2A2E
:100AB800DFD80123934049F2410113EA010840F0CD
:100AC800AD810A2A59D0072AD3D10A9D55F8043B8B
:100AD800002B00F0D38144F021000DF1500E744634
:100AE80004E0B8F1200F00F0D381134603F00F02A1
:100AF800092A11468CBF01F1370230320F2B04F856
:100B0800012B08F101084FEA1312EAD8C0E10022CC
:100B180000E0013302EB820200EB42021878A0F1F8
:100B2800300109299A46A2F13002F2D92E280B92F7
:100B380003F101037FF43EAF9AF80100A0F1300100
:100B4800092944F480641A4640F275812A2800F085
:100B580082819A4601332DE70A9A9AF8010052F8E1
:100B6800045B0A92002DB8BF69429A46BABF44F0A6
:100B780002040B910B95013319E7DDF828C05CF8E6
:100B8800047B39780846002E40F0728181B16FF0FD
:100B9800010E0EF1010EBE443B4603E02D05000098
:100BA800734503D013F8012F002AF9D1A3EB0708E6
:100BB80014F4806302D0B04528BFB04614F0020494
:100BC80000F03982002900F0C481002B00F0D681A2
:100BD8000A94CDF83080DDE908454E444A46E0469F
:100BE80006E0D84717F8010F09F101094A4618B17C
:100BF8004E452B462146F4D1C4460A9CDDF8308088
:100C0800002C40F0A681CDF828C0AAE69AF8010089
:100C18006C287FF4FFAE9AF8020044F440740AF19D
:100C28000303FAE69AF8010044F400740133F4E689
:100C38009AF80100682800F0BF8144F0800401336D
:100C4800EBE60A9B073323F00703B3EC027B51EC76
:100C5800170B0A9302460B468DED0C7B01F0E0F969
:100C6800002800F0BC81DDE90C780022002338461A
:100C7800414601F0DFF9002840F05D81129014F43C
:100C8800806700F0D181092E40F2BB8414AAA6F136
:100C98000907002330210133202B02F8011BA6EBA2
:100CA800030800F02782BB42F5D19FEDBD7B8DED97
:100CB8000E7BDDE90C0101F0E5F9064601F0F0F8DC
:100CC80002460B46DDE90C0100F09CFFDDE90E232E
:100CD80000F06AFE02460B46CDE9102301F0FAF94E
:100CE800054601F0CDF802460B46DDE9100100F09B
:100CF80089FF02460B46CDE91023AD4B002201F0D7
:100D0800B7F9002800F082810135284601F0B8F8CB
:100D1800DDE90E2301F0A2F908B101360025A2A3EE
:100D2800D3E90023DDE90C0101F0A2F9002840F025
:100D3800C181B8F1000F40F0C081304601F0B0F831
:100D480002460B46DDE90C0100F05CFF984B0022DF
:100D580001F070F9002800F046820DF1500E791E5E
:100D68009448714406E001F8016F01371E46002BD4
:100D780000F0C28180FB0632F317C3EBA20303EB3A
:100D88008302A6EB4206202F06F13006EBD104F0D1
:100D98000302012A40F0CF830B9B002B00F0328224
:100DA800129B13B914F00C0F02D00B9B013B0B9351
:100DB8000B9BBB420FD9202F00F0248219467B1EC3
:100DC8007344302202E0202F00F01C8201378F424A
:100DD80003F8012FF7D1202F00F01482012293E1AC
:100DE8000A9BA40709F1010603F1040740F14681B3
:100DF80018780899099B4A46D8470B9B012B40F263
:100E08000B82DDE90845994432462B4601362146D6
:100E18002020D8474E45F7D10A97A2E56F2800F061
:100E2800958040F26182782800F0DA810A2724F060
:100E38001004BC4647E0002606EB860600EB460099
:100E4800A0F1300612F8010FA0F13003092BF3D9F5
:100E58009246531CAFE50A9B9AF8020053F8046BBC
:100E68000A930AF1020A26EAE6760AF10103A2E5E4
:100E780000293FF49DAE06F1FF3E8AE624F01000FB
:100E880014F4806340F021003FF427AE0DF1500EBA
:100E980008230690059310200023CDE902304A4626
:100EA800CDE900E8DDE9081304965846FFF73CFB56
:100EB8000A95814655E5582800F08C80622840F054
:100EC80050830227BC4614F480637CD124F00C02C2
:100ED8000C9212F400700A9A40F0A381141D0C9A27
:100EE80012F4807140F02A83500640F180810A9AFA
:100EF8001278002A40F0C7810C9820F010000C905E
:100F0800002B00F0C08111460DF1500E0C9B06938A
:100F18000B9BCDF80CC0CDE90463019100234A4630
:100F28000293CDF800E0DDE908135846FFF7FCFA14
:100F38000A94814615E543463A460020002100F010
:100F480061FE0123CDE90C01129398E60827BC46FF
:100F5800B9E70B9B43454C467FF655AEDDE908568D
:100F68004B44A3EB08096746224633460134294619
:100F78002020D8474C45F7D1BC4644E60A94DDE921
:100F8800084566464A462B462146D84717F8010FBA
:100F980009F101090028F5D10A9CB44630E600BFE2
:100FA8000000000065CDCD410000C0FFFFFFDF411C
:100FB8000000E03F676666669AF8020044F0C004E5
:100FC8000AF1030329E524F00D020C9281E7044697
:100FD80081465CE5102744F02004BC4673E7099E6F
:100FE800089D33464A4629466E20D84709F102042F
:100FF800334609F1010229466120D8472246334683
:1010080029466E2009F10309D847AAE4DDE9100151
:10101800B34B002201F00EF800287FF480AE002DBB
:1010280040F0EC8001357AE69FEDAB7B4FF0060887
:101038008DED0E7B3DE60B9A424540F2DB820C9427
:10104800DDE908454A440E97A2EB08080A9367466B
:101058004A462B4609F1010921462020D847C145B7
:10106800F6D1BC460E9F0B9A0A9B0C9C397802F16C
:101078000108084600297FF4A8ADC4E50B9B012BA5
:1010880040F2C480DDE9085809F1FF361E444C4699
:1010980022464346013429462020D847B442F7D196
:1010A8000B9B99440A9B22461878DDE90813D84718
:1010B8000A9756E44FF0000953E40DF1500E781EDC
:1010C800DFF820C270440DE0ACFB0531C90801EB24
:1010D8008103A5EB43033033092D00F8013F63D9A1
:1010E8000D461746202F07F1010208F1FF38EBD112
:1010F800202734E61F46D8E504F00302012A00F051
:101108008B82202F00F01782129B002B5ED1630781
:1011180040F12E8207F170036B4407F101082B217F
:1011280003F8201C4346002A6ED10B9A93426BD2D7
:101138000C94DDE9084509EB0207FF1A4E460E93A9
:10114800CDF840E032462B46013621462020D847CC
:10115800BE42F7D10C9C0E9BDDF840E00C94DDE913
:101168000845F044DE193A4618F8010D01372B46B8
:101178002146D847B742F6D10C9CA5074ED50B9D02
:10118800A7EB0904AC42B946BFF4EBABDDE908674D
:101198004A463B46314620200134D847AC4209F143
:1011A8000109F5D3FFF7DDBB202AA1D0B8F1000F64
:1011B80061D0774408EB0203302101E09A425AD00B
:1011C8000132202A07F8011FF8D191E707F17003CF
:1011D8006B4407F101082D2103F8201C4346A2E7C0
:1011E8001027BC466FE6F20748BF0136B5E512F096
:1011F800800F0A9A14BF128812687AE6E9077FF509
:101208008EAD0FE7202398464F46A7E70A9B4A462C
:101218001878DDE90813D847B146FDE5B946FFF768
:10122800A0BB073222F00702546852F8085B0A9202
:1012380055EA040240F043810C9A22F010020C9205
:10124800002B00F03C814FF000080DF1500E0C9B74
:1012580006930B9BCDF80CC0CDE900E8CDE90463FB
:1012680000234A460293DDE908135846FFF75CF964
:101278008146FFF776BB02F170036B44571C2E22A0
:1012880003F8202C6BE50C9B13F0200F14BF4123AF
:1012980061230DF1500EA3F10A05774603E02029DA
:1012A8003FF434AE0246B2FBFCF00CFB10285FFAA8
:1012B80088F3B8F1090F03F130088ABF5B195FFAA8
:1012C80088F3DBB2624507F8013B01F10101E6D280
:1012D8001CE600BFAFF300800000000080842E41B0
:1012E8000000E03FCDCCCCCC692824F0100140F0C0
:1012F800848114F4806303D024F011014FF48063D7
:1013080011F400740A9A3ED111F4807002F10408B5
:1013180040F09A804D0640F1C78014782746E20FC6
:10132800002C00F0BB803B460DF1500EDFF8F4C2F4
:101338000A92744601E020280FD0ACFB0352D20871
:1013480002EB8205A3EB45051F463035092F04F84B
:10135800015B00F101001346EDD80A9A0B9B069138
:10136800CDE90463CDE901020A234A460393CDF887
:1013780000E0DDE908135846FFF7D6F8CDF82880D5
:101388008146FFF7EEBA073222F00702104652688C
:1013980050F8084B0A9054EA02074FEAD27000F05E
:1013A800C680002A234602DA634262EB42020DF14C
:1013B800500E9C4C0C90F4464FF000080E96CDF859
:1013C800409002E0B8F1200F2ED0981840F10000AC
:1013D800A4FB005626F0030505EB9605401B1D1AD5
:1013E8009946174662F100034FF0CC3202FB05F232
:1013F80004FB0322A5FB04352A4403F00106052556
:10140800A6FB05562D18B9F10A0F4FEA530305F14B
:10141800300577F1000743EAC2730CF8015B08F165
:1014280001084FEA5202CDD20C980E9EDDF840908A
:101438000B9B0691CDE904630A23CDE90180CDF821
:1014480000E04A4603930EE71068C20F002800F038
:10145800C08080EAE073A3EBE0730DF1500EDFF873
:10146800C4C10A92704601E0202C0FD0ACFB035295
:10147800D20802EB8205A3EB45051F463035092F3C
:1014880000F8015B04F101041346EDD80A9A0B9B9E
:101498000691CDE90463CDE9014265E7002B3FF4ED
:1014A80043AF0DF1500E59E70C0640F19880B2F9A0
:1014B800004084EAE477A7EBE477BFB22FE70C9B00
:1014C8000E9613F0200F14BF412361230DF1500E27
:1014D8000A3BCDE912CBCDF840904FF00008764694
:1014E800F346994604E0B8F1200F17D005460C469C
:1014F80021463A460023284600F00CFED2B2092ABB
:1015080002F1300388BF02EB0903BD42DBB274F17C
:10151800000406F8013B08F10108E4D2DE460E9EFD
:10152800DDF84090DDF848C0DDF84CB08FE6002BC0
:101538005BD11A463BE73B46B846F4E50A9A12687F
:1015480012BB0C9921F010010C91EBB10DF1500E6A
:101558000C9B06930B9BCDF80CC0CDE9046301905E
:10156800DCE414F480637FF4C7AE24F01001C7E60E
:101578002607E0D507F170036B4407F10108202125
:1015880003F8201C4346CEE50C9B13F0200F14BF34
:10159800412361230DF1500EA3F10A05774602E0BD
:1015A8002028D5D00A46B2FBFCF10CFB11285FFAC3
:1015B80088F3B8F1090F03F130088ABF5B195FFAA5
:1015C80088F3DBB2624507F8013B00F10100E7D27E
:1015D800BEE7002B3FF441AF0DF1500E57E71468FA
:1015E80084EAE477A7EBE47799E64FF000080DF179
:1015F800500E1DE708F101083BE50A270C46BC46DA
:1016080061E4094B03EBC60393ED007BB0468DED17
:101618000E7B0027FFF74DBB0B9B002B3FF4DBAB8A
:10162800FFF7BEBBCDCCCCCC000200000FB410B588
:1016380084B006AC4FF0FF3254F8043B009402A982
:1016480004480394FFF770F904B0BDE8104004B0F3
:10165800704700BF25090000094A04210123C2F888
:101668000015C2F81C059360D2F81C31002BFBD082
:1016780000230121C2F81C31D160C2F8003570473F
:10168800002000400F49104A104B00F010F8104994
:10169800104A114B00F00BF81049114A114B00F099
:1016A80006F81149114A124B00F001F806E0521AE7
:1016B80003DD043A98588850FBDC7047FEF78CFE2F
:1016C800FEF756FE0000002000000020EC26000077
:1016D8000000002000000020EC2600000000002090
:1016E80000000020EC260000000000200000002080
:1016F800EC260000FEE7FEE7FEE7FEE7FEE7FEE772
:10170800FEE7FEE7FEE7FEE73F48404C404B414915
:101718004FF0A04C062680B50022C0F80C65C0F832
:1017280024450324C0F86C25CCF818470820402429
:10173800CCF80845C3F80425C3F80825C3F81005F4
:101748004FF48033C1F80425C1F80825C1F8100505
:10175800C1F80433304B4FF400751D602F4B3048EF
:10176800012447F6122ECC60C1F840E50C601B211D
:10177800C3F808151A21C3F80C154FF08061C3F897
:10178800241540F20C672A21CCF86C77CCF86877DE
:1017980001701D214470C3F80065C3F80052C3F8F6
:1017A80088150221C3F84815C3F84405C3F8042175
:1017B800C3F824219C60D3F80421012AFBD100241A
:1017C8000E21C3F80045017006214470C3F80015C6
:1017D8004FF40071C3F800121D21C3F888150221C7
:1017E800C3F848150D49C3F84405C3F80441C3F8C4
:1017F80024419A60D1F80431012BFBD10023C1F8B0
:10180800003530BFFDE700BF0020004000E0D701F1
:10181800008000400090004000E100E000300040FF
:1018280028000020544AD2F84031DB075CD570B557
:10183800524B534D53490024C2F84041012006221F
:101848004FF484562870C3F80025C3F800621D269B
:10185800C3F88865C3F84805C3F84455C3F8382564
:10186800C3F83415C3F80441C3F824419860D3F889
:101878000421012AFBD10022C3F800250B784C78FB
:101888004148240944EA03148B78CD782D0945EAA8
:101898000315B4F5006F0B794E79A4BFA4F58054F5
:1018A80024B23609B5F5006F46EA0316A4BFA5F5BC
:1018B80080552DB2B6F5006FA4BFA6F5805636B296
:1018C80033462A462146FFF7B1FEB4F5F57F0CDD15
:1018D8002E4B1A78012A22D1274B012147F61222D2
:1018E800D960C3F8402570BD704714F5F57F09DA53
:1018F800264B1A78022AEFD0022225481A70FFF7E1
:1019080095FEE9E7B5F5F57F0FDD204B1A78032A38
:10191800E2D003221F481A70FFF788FEDCE7012295
:101928001D481A70FFF782FED6E715F5F57F0CDB28
:10193800B6F5F57F13DD154B1A78052ACCD00522AC
:1019480016481A70FFF772FEC6E7104B1A78042A79
:10195800C2D0042212481A70FFF768FEBCE716F5D9
:10196800F57FB9DA094B1A78062AB5D006220D4850
:101978001A70FFF75BFEAFE70090004000300040B0
:101988002800002020000020500200001C00002039
:10199800840200009802000074020000BC020000EB
:1019A800A8020000CC02000070B54FF0FF0C4CF408
:1019B800E06C1CEA11541DBF1CEA135594EA0C0F85
:1019C80095EA0C0F00F0DEF82C4481EA030621EAC0
:1019D8004C5123EA4C5350EA013518BF52EA0335FB
:1019E80041F4801143F4801338D0A0FB02CE4FF0AD
:1019F8000005E1FB02E506F00042E0FB03E54FF0DD
:101A08000006E1FB03569CF0000F18BF4EF0010ED4
:101A1800A4F1FF04B6F5007F64F5407404D25FEAD0
:101A28004E0E6D4146EB060642EAC62141EA555183
:101A38004FEAC52040EA5E504FEACE2EB4F1FD0CC5
:101A480088BFBCF5E06F1ED8BEF1004F08BF5FEA43
:101A5800500E50F1000041EB045170BD06F00046F5
:101A680046EA010140EA020081EA0301B4EB5C04A2
:101A7800C2BFD4EB0C0541EA045170BD41F480119A
:101A88004FF0000E013C00F3AB8014F1360FDEBFBF
:101A9800002001F0004170BDC4F10004203C35DA9B
:101AA8000C341BDC04F11404C4F1200500FA05F31E
:101AB80020FA04F001FA05F240EA020001F00042BF
:101AC80021F0004110EBD37021FA04F642EB060135
:101AD8005EEA430E08BF20EAD37070BDC4F10C045F
:101AE800C4F1200500FA04F320FA05F001FA04F223
:101AF80040EA020001F0004110EBD37041F100010F
:101B08005EEA430E08BF20EAD37070BDC4F1200519
:101B180000FA05F24EEA020E20FA04F301FA05F281
:101B280043EA020321FA04F001F0004121FA04F229
:101B380020EA020000EBD3705EEA430E08BF20EAF9
:101B4800D37070BD94F0000F0FD101F00046400033
:101B580041EB010111F4801F08BF013CF7D041EAB5
:101B6800060195F0000F18BF704703F000465200B9
:101B780043EB030313F4801F08BF013DF7D043EA8A
:101B88000603704794EA0C0F0CEA135518BF95EA40
:101B98000C0F0CD050EA410618BF52EA4306D1D1C7
:101BA80081EA030101F000414FF0000070BD50EAE6
:101BB800410606BF1046194652EA430619D094EA70
:101BC8000C0F02D150EA013613D195EA0C0F05D15A
:101BD80052EA03361CBF104619460AD181EA0301AE
:101BE80001F0004141F0FE4141F470014FF0000066
:101BF80070BD41F0FE4141F4780170BD81F00041B3
:101C080002E000BF83F0004330B54FEA41044FEAD9
:101C1800430594EA050F08BF90EA020F1FBF54EA74
:101C2800000C55EA020C7FEA645C7FEA655C00F010
:101C3800E2804FEA5454D4EB5555B8BF6D420CDDE1
:101C48002C4480EA020281EA030382EA000083EA64
:101C5800010180EA020281EA0303362D88BF30BD04
:101C680011F0004F4FEA01314FF4801C4CEA11315A
:101C780002D0404261EB410113F0004F4FEA0333B9
:101C88004CEA133302D0524263EB430394EA050F44
:101C980000F0A780A4F10104D5F1200E0DDB02FAB3
:101CA8000EFC22FA05F2801841F1000103FA0EF247
:101CB800801843FA05F359410EE0A5F120050EF10D
:101CC800200E012A03FA0EFC28BF4CF0020C43FA3E
:101CD80005F3C01851EBE37101F0004507D54FF04B
:101CE800000EDCF1000C7EEB00006EEB0101B1F59B
:101CF800801F1BD3B1F5001F0CD349085FEA3000E1
:101D08004FEA3C0C04F101044FEA445212F5800FEB
:101D180080F09A80BCF1004F08BF5FEA500C50F188
:101D2800000041EB045141EA050130BD5FEA4C0C6B
:101D3800404141EB0101013C28BFB1F5801FE9D2C8
:101D480091F0000F04BF01460020B1FA81F308BFEB
:101D58002033A3F10B03B3F120020CDA0C3208DDB7
:101D680002F1140CC2F10C0201FA0CF021FA02F192
:101D78000CE002F11402D8BFC2F1200C01FA02F102
:101D880020FA0CFCDCBF41EA0C019040E41AA2BF27
:101D980001EB0451294330BD6FEA04041F3C1CDAEF
:101DA8000C340EDC04F11404C4F1200220FA04F00F
:101DB80001FA02F340EA030021FA04F345EA0301B9
:101DC80030BDC4F10C04C4F1200220FA02F001FA7B
:101DD80004F340EA0300294630BD21FA04F02946FD
:101DE80030BD94F0000F83F4801306BF81F4801196
:101DF8000134013D4EE77FEA645C18BF7FEA655C09
:101E080029D094EA050F08BF90EA020F05D054EADA
:101E1800000C04BF1946104630BD91EA030F1EBFDF
:101E28000021002030BD5FEA545C05D140004941E3
:101E380028BF41F0004130BD14F580043CBF01F5D6
:101E4800801130BD01F0004545F0FE4141F47001BC
:101E58004FF0000030BD7FEA645C1ABF1946104697
:101E68007FEA655C1CBF0B46024650EA013406BF98
:101E780052EA033591EA030F41F4002130BD00BF57
:101E880090F0000F04BF0021704730B54FF4806414
:101E980004F132044FF000054FF0000150E700BF95
:101EA80090F0000F04BF0021704730B54FF48064F4
:101EB80004F1320410F0004548BF40424FF00001E1
:101EC8003EE700BF42004FEAE2014FEA31014FEA24
:101ED80002701FBF12F07F4393F07F4F81F0605173
:101EE800704732F07F4208BF704793F07F4F04BFBE
:101EF80041F40021704730B54FF4607401F000459B
:101F080021F000411CE700BF50EA010208BF7047FA
:101F180030B54FF000050AE050EA010208BF7047EB
:101F280030B511F0004502D5404261EB41014FF454
:101F3800806404F132045FEA915C3FF4D8AE4FF05C
:101F480003025FEADC0C18BF03325FEADC0C18BF3F
:101F5800033202EBDC02C2F1200300FA03FC20FA90
:101F680002F001FA03FE40EA0E0021FA02F11444DD
:101F7800BDE600BF4FF0FF3C06E000BF4FF0010C8C
:101F880002E000BF4FF0010C4DF804CD4FEA410CC0
:101F98007FEA6C5C4FEA430C18BF7FEA6C5C1BD08D
:101FA80001B050EA410C0CBF52EA430C91EA030F0E
:101FB80002BF90EA020F0020704710F1000F91EA6B
:101FC800030F58BF994208BF90422CBFD8176FEA39
:101FD800E37040F0010070474FEA410C7FEA6C5C07
:101FE80002D150EA013C07D14FEA430C7FEA6C5C0E
:101FF800D6D152EA033CD3D05DF8040B704700BF3A
:102008008446104662468C461946634600E000BF87
:1020180001B5FFF7B7FF002848BF10F1000F01BD59
:102028004DF808EDFFF7F4FF0CBF012000205DF824
:1020380008FB00BF4DF808EDFFF7EAFF34BF0120A9
:1020480000205DF808FB00BF4DF808EDFFF7E0FF42
:1020580094BF012000205DF808FB00BF4DF808ED93
:10206800FFF7CEFF94BF012000205DF808FB00BFFA
:102078004DF808EDFFF7C4FF34BF012000205DF8DC
:1020880008FB00BF4FEA410212F5001215D211D524
:102098006FF47873B3EB625212D94FEAC12343F05D
:1020A800004343EA505311F0004F23FA02F018BFDF
:1020B800404270474FF00000704750EA013005D1A8
:1020C80011F0004008BF6FF0004070474FF000006B
:1020D800704700BF4A0011D212F5001211D20DD577
:1020E8006FF47873B3EB62520ED44FEAC12343F016
:1020F800004343EA505323FA02F070474FF00000C0
:10210800704750EA013002D14FF0FF3070474FF06E
:102118000000704753B94AB9002908BF00281CBFFE
:102128004FF0FF314FF0FF3000F06AB9ADF1080C05
:102138006DE904CE00F006F8DDF804E0DDE90223DD
:1021480004B070472DE9F047089D0E4604460F4637
:10215800002B4AD194468C45B2FA82F260D942B13A
:10216800C2F12003974020FA03F30CFA02FC1F4344
:1021780094404FEA1C4E1FFA8CF6B7FBFEF1230C75
:102188000EFB117743EA074301FB06F098420AD990
:102198001CEB030301F1FF3780F01581984240F2F0
:1021A8001281023963441B1AA4B2B3FBFEF00EFB82
:1021B800103344EA034400FB06F6A6420AD91CEB96
:1021C800040400F1FF3380F00081A64240F2FD8054
:1021D8006444023840EA0140A41B00211DB1D440E8
:1021E8000023C5E90043BDE8F0878B4205D90DB14E
:1021F800C5E9000100210846F5E7B3FA83F1002993
:1022080046D1B34202D3824200F2F580841A66EBCB
:10221800030201201746002DE5D0C5E90047E2E793
:10222800002A40F09380A1EB0C034FEA1C471FFAE9
:102238008CFE0121B3FBF7F607FB1630230C43EAAB
:1022480000430EFB06F0984208D91CEB030306F185
:10225800FF3802D2984200F2D08046461B1AA4B238
:10226800B3FBF7F007FB103344EA03440EFB00FE10
:10227800A64508D91CEB040400F1FF3302D2A64599
:1022880000F2B6801846A4EB0E0440EA0640A5E723
:10229800C1F120078B4022FA07FC4CEA030C06FA2E
:1022A80001FE20FA07F426FA07F344EA0E0400FABE
:1022B80001F84FEA1C404FEA1449B3FBF0FE1FFA3D
:1022C8008CF600FB1E3349EA03430EFB06F99945D9
:1022D80002FA01F20BD91CEB03030EF1FF3A80F06E
:1022E8008580994540F28280AEF1020E6344A3EBEB
:1022F8000909A4B2B9FBF0F300FB139944EA0944B5
:1023080003FB06F6A64208D91CEB040403F1FF30D0
:1023180068D2A64266D9023B644443EA0E40A41B35
:10232800A0FB02E6B4427346B14652D34FD05DB12A
:10233800B8EB030264EB090404FA07F722FA01F385
:102348001F43CC40C5E9007400214CE7C2F12001CD
:1023580020FA01F30CFA02FC26FA01F19640334305
:102368004FEA1C471FFA8CFEB1FBF7F007FB10166B
:10237800190C41EA064100FB0EF68E4204FA02F4FB
:1023880008D91CEB010100F1FF382DD28E422BD960
:1023980002386144891B9BB2B1FBF7F607FB1611A3
:1023A80043EA014306FB0EF1994208D91CEB0303EB
:1023B80006F1FF3814D2994212D9023E63445B1ADF
:1023C80046EA004136E73946EDE6184602E7F045A9
:1023D800ADD2BEEB020366EB0C060138B146A6E7A8
:1023E8004646ECE7034698E74046D3E7D6467EE7FD
:1023F8006444023847E708460DE7023E63442DE788
:10240800704700BF830730B547D0541E002A3ED01E
:10241800CAB2034601E0013C39D303F8012B9D07FA
:10242800F9D1032C2CD9CDB205EB05250F2C05EBE2
:10243800054535D9A4F1100222F00F0C03F1100E56
:10244800E6444FEA121C1A46C2E90055C2E9025591
:1024580010327245F8D10CF1010214F00C0F03EBA5
:10246800021204F00F0C13D0ACF1040323F00303A1
:102478000433134442F8045B9342FBD10CF0030489
:102488002CB1C9B21C4403F8011BA342FBD130BDD7
:1024980064461346002CF4D1F9E703461446C0E716
:1024A8001A46A446E0E700BF70B50F4B0F4DAB428C
:1024B800A3EB050607D0B610002455F8043B0134F9
:1024C8009847A642F9D800F0D5F8094D094B5E1B8C
:1024D800AB424FEAA60606D0002455F8043B013467
:1024E8009847A642F9D870BD8826000088260000C3
:1024F800882600009026000008B50021044600F058
:1025080023F8034B1B6803B19847204600F0B0F846
:10251800F8020020002301461A46184600F076B853
:1025280038B5074D074C2C1BA41005D0013C55F8B5
:10253800043D9847002CF9D1BDE8384000F0A4B814
:10254800A02600009C2600002DE9F04F294F83B0FB
:102558003E6801905EB38B464FF000094FF00108CA
:102568007468651E23D4013406EB8404BBF1000FA4
:1025780020D173682268013BAB420CBF7560C4F878
:1025880000907AB1D6F88811D6F804A008FA05FCAC
:102598001CEA010F1AD1904771683A68514522D157
:1025A800B24220D1013D6B1CA4F10404DED103B07A
:1025B800BDE8F08FD4F800315B45DAD0013D6A1CE4
:1025C800A4F10404F6D103B0BDE8F08FD6F88C313D
:1025D800D4F880101CEA030F09D10198904771685C
:1025E8003A685145DCD0002AE1D01646B8E70846DB
:1025F8009047D1E72C000020024B13B10248FFF7A7
:1026080089BF7047000000002925000070B4164DEE
:102618002C681CB365681F2D23DC38B9AB1C013549
:10262800656044F82310002070BC704704EB850CEB
:102638000228CCF88820D4F888614FF0010202FA09
:1026480005F246EA0206C4F88861CCF80831E5D1FB
:10265800D4F88C311343C4F88C31DFE7034C2C6079
:10266800D8E74FF0FF30DFE72C00002030000020D3
:10267800FEE700BFF8B500BFF8BC08BC9E4670472F
:102688000126000051030000F8B500BFF8BC08BCE3
:0C2698009E46704729030000000000006F
:1026A400EC2600000000002000000000EC260000E2
:1026B4000000002000000000EC26000000000020C4
:1026C40000000000EC2600000000002000000000D4
:1026D40000000020BF000000FC02002000000000F9
:0826E400FC02002000000000D0
:040000030000168D56
:00000001FF
